{
  "contractName": "Lassie",
  "abi": [
    {
      "inputs": [
        {
          "internalType": "string",
          "name": "_name",
          "type": "string"
        },
        {
          "internalType": "uint8",
          "name": "_contractState",
          "type": "uint8"
        },
        {
          "internalType": "uint8",
          "name": "_responderState",
          "type": "uint8"
        }
      ],
      "payable": false,
      "stateMutability": "nonpayable",
      "type": "constructor"
    },
    {
      "anonymous": false,
      "inputs": [
        {
          "indexed": false,
          "internalType": "uint256",
          "name": "id",
          "type": "uint256"
        },
        {
          "indexed": false,
          "internalType": "string",
          "name": "name",
          "type": "string"
        },
        {
          "indexed": false,
          "internalType": "address",
          "name": "owner",
          "type": "address"
        },
        {
          "indexed": false,
          "internalType": "string",
          "name": "lat",
          "type": "string"
        },
        {
          "indexed": false,
          "internalType": "string",
          "name": "lon",
          "type": "string"
        },
        {
          "indexed": false,
          "internalType": "string",
          "name": "endpoint",
          "type": "string"
        }
      ],
      "name": "SensorCreated",
      "type": "event"
    },
    {
      "payable": true,
      "stateMutability": "payable",
      "type": "fallback"
    },
    {
      "constant": true,
      "inputs": [],
      "name": "contractState",
      "outputs": [
        {
          "internalType": "uint8",
          "name": "",
          "type": "uint8"
        }
      ],
      "payable": false,
      "stateMutability": "view",
      "type": "function"
    },
    {
      "constant": true,
      "inputs": [],
      "name": "name",
      "outputs": [
        {
          "internalType": "string",
          "name": "",
          "type": "string"
        }
      ],
      "payable": false,
      "stateMutability": "view",
      "type": "function"
    },
    {
      "constant": true,
      "inputs": [],
      "name": "responderPrepAmount",
      "outputs": [
        {
          "internalType": "uint256",
          "name": "",
          "type": "uint256"
        }
      ],
      "payable": false,
      "stateMutability": "view",
      "type": "function"
    },
    {
      "constant": true,
      "inputs": [],
      "name": "responderRespondAmount",
      "outputs": [
        {
          "internalType": "uint256",
          "name": "",
          "type": "uint256"
        }
      ],
      "payable": false,
      "stateMutability": "view",
      "type": "function"
    },
    {
      "constant": true,
      "inputs": [],
      "name": "responderState",
      "outputs": [
        {
          "internalType": "uint8",
          "name": "",
          "type": "uint8"
        }
      ],
      "payable": false,
      "stateMutability": "view",
      "type": "function"
    },
    {
      "constant": true,
      "inputs": [],
      "name": "sensorCount",
      "outputs": [
        {
          "internalType": "uint256",
          "name": "",
          "type": "uint256"
        }
      ],
      "payable": false,
      "stateMutability": "view",
      "type": "function"
    },
    {
      "constant": true,
      "inputs": [
        {
          "internalType": "uint256",
          "name": "",
          "type": "uint256"
        }
      ],
      "name": "sensors",
      "outputs": [
        {
          "internalType": "uint256",
          "name": "id",
          "type": "uint256"
        },
        {
          "internalType": "string",
          "name": "name",
          "type": "string"
        },
        {
          "internalType": "address",
          "name": "owner",
          "type": "address"
        },
        {
          "internalType": "string",
          "name": "lat",
          "type": "string"
        },
        {
          "internalType": "string",
          "name": "lon",
          "type": "string"
        },
        {
          "internalType": "string",
          "name": "endpoint",
          "type": "string"
        }
      ],
      "payable": false,
      "stateMutability": "view",
      "type": "function"
    },
    {
      "constant": false,
      "inputs": [
        {
          "internalType": "string",
          "name": "_name",
          "type": "string"
        },
        {
          "internalType": "string",
          "name": "_lat",
          "type": "string"
        },
        {
          "internalType": "string",
          "name": "_lon",
          "type": "string"
        },
        {
          "internalType": "string",
          "name": "_endpoint",
          "type": "string"
        }
      ],
      "name": "createSensor",
      "outputs": [],
      "payable": false,
      "stateMutability": "nonpayable",
      "type": "function"
    },
    {
      "constant": false,
      "inputs": [
        {
          "internalType": "bool",
          "name": "_newVal",
          "type": "bool"
        }
      ],
      "name": "setSmoke",
      "outputs": [],
      "payable": false,
      "stateMutability": "nonpayable",
      "type": "function"
    },
    {
      "constant": false,
      "inputs": [
        {
          "internalType": "bool",
          "name": "_newVal",
          "type": "bool"
        }
      ],
      "name": "setTemperature",
      "outputs": [],
      "payable": false,
      "stateMutability": "nonpayable",
      "type": "function"
    },
    {
      "constant": false,
      "inputs": [
        {
          "internalType": "uint256",
          "name": "_amount",
          "type": "uint256"
        }
      ],
      "name": "transferEther",
      "outputs": [],
      "payable": true,
      "stateMutability": "payable",
      "type": "function"
    }
  ],
  "bytecode": "0x608060405260006001556001600455600260055530600760006101000a81548173ffffffffffffffffffffffffffffffffffffffff021916908373ffffffffffffffffffffffffffffffffffffffff16021790555073631a3f43ffa216f97b346c3f2c896853290f70bc600860006101000a81548173ffffffffffffffffffffffffffffffffffffffff021916908373ffffffffffffffffffffffffffffffffffffffff160217905550348015620000b657600080fd5b50604051620014cb380380620014cb83398181016040526060811015620000dc57600080fd5b8101908080516040519392919084640100000000821115620000fd57600080fd5b838201915060208201858111156200011457600080fd5b82518660018202830111640100000000821117156200013257600080fd5b8083526020830192505050908051906020019080838360005b83811015620001685780820151818401526020810190506200014b565b50505050905090810190601f168015620001965780820380516001836020036101000a031916815260200191505b50604052602001805190602001909291908051906020019092919050505033600660026101000a81548173ffffffffffffffffffffffffffffffffffffffff021916908373ffffffffffffffffffffffffffffffffffffffff16021790555081600360006101000a81548160ff021916908360ff16021790555080600360016101000a81548160ff021916908360ff16021790555082600090805190602001906200024392919062000283565b506000600660006101000a81548160ff0219169083151502179055506000600660016101000a81548160ff02191690831515021790555050505062000332565b828054600181600116156101000203166002900490600052602060002090601f016020900481019282601f10620002c657805160ff1916838001178555620002f7565b82800160010185558215620002f7579182015b82811115620002f6578251825591602001919060010190620002d9565b5b5090506200030691906200030a565b5090565b6200032f91905b808211156200032b57600081600090555060010162000311565b5090565b90565b61118980620003426000396000f3fe60806040526004361061009c5760003560e01c80636bacc63f116100645780636bacc63f146106435780636d0f9b451461068057806373ffd5b7146106b157806385209ee0146106df5780638acf4ce114610710578063d2c811f71461073b5761009c565b806306fdde031461009e5780632503ffd71461012e5780633a348e68146103bb578063412f2e82146103e6578063642cd78714610618575b005b3480156100aa57600080fd5b506100b3610778565b6040518080602001828103825283818151815260200191508051906020019080838360005b838110156100f35780820151818401526020810190506100d8565b50505050905090810190601f1680156101205780820380516001836020036101000a031916815260200191505b509250505060405180910390f35b34801561013a57600080fd5b506103b96004803603608081101561015157600080fd5b810190808035906020019064010000000081111561016e57600080fd5b82018360208201111561018057600080fd5b803590602001918460018302840111640100000000831117156101a257600080fd5b91908080601f016020809104026020016040519081016040528093929190818152602001838380828437600081840152601f19601f8201169050808301925050505050505091929192908035906020019064010000000081111561020557600080fd5b82018360208201111561021757600080fd5b8035906020019184600183028401116401000000008311171561023957600080fd5b91908080601f016020809104026020016040519081016040528093929190818152602001838380828437600081840152601f19601f8201169050808301925050505050505091929192908035906020019064010000000081111561029c57600080fd5b8201836020820111156102ae57600080fd5b803590602001918460018302840111640100000000831117156102d057600080fd5b91908080601f016020809104026020016040519081016040528093929190818152602001838380828437600081840152601f19601f8201169050808301925050505050505091929192908035906020019064010000000081111561033357600080fd5b82018360208201111561034557600080fd5b8035906020019184600183028401116401000000008311171561036757600080fd5b91908080601f016020809104026020016040519081016040528093929190818152602001838380828437600081840152601f19601f820116905080830192505050505050509192919290505050610816565b005b3480156103c757600080fd5b506103d0610ba9565b6040518082815260200191505060405180910390f35b3480156103f257600080fd5b5061041f6004803603602081101561040957600080fd5b8101908080359060200190929190505050610baf565b60405180878152602001806020018673ffffffffffffffffffffffffffffffffffffffff1673ffffffffffffffffffffffffffffffffffffffff16815260200180602001806020018060200185810385528a818151815260200191508051906020019080838360005b838110156104a3578082015181840152602081019050610488565b50505050905090810190601f1680156104d05780820380516001836020036101000a031916815260200191505b50858103845288818151815260200191508051906020019080838360005b838110156105095780820151818401526020810190506104ee565b50505050905090810190601f1680156105365780820380516001836020036101000a031916815260200191505b50858103835287818151815260200191508051906020019080838360005b8381101561056f578082015181840152602081019050610554565b50505050905090810190601f16801561059c5780820380516001836020036101000a031916815260200191505b50858103825286818151815260200191508051906020019080838360005b838110156105d55780820151818401526020810190506105ba565b50505050905090810190601f1680156106025780820380516001836020036101000a031916815260200191505b509a505050505050505050505060405180910390f35b34801561062457600080fd5b5061062d610e6b565b6040518082815260200191505060405180910390f35b34801561064f57600080fd5b5061067e6004803603602081101561066657600080fd5b81019080803515159060200190929190505050610e71565b005b34801561068c57600080fd5b50610695610edc565b604051808260ff1660ff16815260200191505060405180910390f35b6106dd600480360360208110156106c757600080fd5b8101908080359060200190929190505050610eef565b005b3480156106eb57600080fd5b506106f4610f4d565b604051808260ff1660ff16815260200191505060405180910390f35b34801561071c57600080fd5b50610725610f60565b6040518082815260200191505060405180910390f35b34801561074757600080fd5b506107766004803603602081101561075e57600080fd5b81019080803515159060200190929190505050610f66565b005b60008054600181600116156101000203166002900480601f01602080910402602001604051908101604052809291908181526020018280546001816001161561010002031660029004801561080e5780601f106107e35761010080835404028352916020019161080e565b820191906000526020600020905b8154815290600101906020018083116107f157829003601f168201915b505050505081565b600084511161082457600080fd5b600083511161083257600080fd5b600082511161084057600080fd5b600081511161084e57600080fd5b6001600081548092919060010191905055506040518060c0016040528060015481526020018581526020013373ffffffffffffffffffffffffffffffffffffffff168152602001848152602001838152602001828152506002600060015481526020019081526020016000206000820151816000015560208201518160010190805190602001906108e09291906110af565b5060408201518160020160006101000a81548173ffffffffffffffffffffffffffffffffffffffff021916908373ffffffffffffffffffffffffffffffffffffffff16021790555060608201518160030190805190602001906109449291906110af565b5060808201518160040190805190602001906109619291906110af565b5060a082015181600501908051906020019061097e9291906110af565b509050507fd7a758a6b8adf656a8c2a7049436453ded6af08885a9d822891ca985de205477600154853386868660405180878152602001806020018673ffffffffffffffffffffffffffffffffffffffff1673ffffffffffffffffffffffffffffffffffffffff16815260200180602001806020018060200185810385528a818151815260200191508051906020019080838360005b83811015610a2f578082015181840152602081019050610a14565b50505050905090810190601f168015610a5c5780820380516001836020036101000a031916815260200191505b50858103845288818151815260200191508051906020019080838360005b83811015610a95578082015181840152602081019050610a7a565b50505050905090810190601f168015610ac25780820380516001836020036101000a031916815260200191505b50858103835287818151815260200191508051906020019080838360005b83811015610afb578082015181840152602081019050610ae0565b50505050905090810190601f168015610b285780820380516001836020036101000a031916815260200191505b50858103825286818151815260200191508051906020019080838360005b83811015610b61578082015181840152602081019050610b46565b50505050905090810190601f168015610b8e5780820380516001836020036101000a031916815260200191505b509a505050505050505050505060405180910390a150505050565b60045481565b6002602052806000526040600020600091509050806000015490806001018054600181600116156101000203166002900480601f016020809104026020016040519081016040528092919081815260200182805460018160011615610100020316600290048015610c615780601f10610c3657610100808354040283529160200191610c61565b820191906000526020600020905b815481529060010190602001808311610c4457829003601f168201915b5050505050908060020160009054906101000a900473ffffffffffffffffffffffffffffffffffffffff1690806003018054600181600116156101000203166002900480601f016020809104026020016040519081016040528092919081815260200182805460018160011615610100020316600290048015610d255780601f10610cfa57610100808354040283529160200191610d25565b820191906000526020600020905b815481529060010190602001808311610d0857829003601f168201915b505050505090806004018054600181600116156101000203166002900480601f016020809104026020016040519081016040528092919081815260200182805460018160011615610100020316600290048015610dc35780601f10610d9857610100808354040283529160200191610dc3565b820191906000526020600020905b815481529060010190602001808311610da657829003601f168201915b505050505090806005018054600181600116156101000203166002900480601f016020809104026020016040519081016040528092919081815260200182805460018160011615610100020316600290048015610e615780601f10610e3657610100808354040283529160200191610e61565b820191906000526020600020905b815481529060010190602001808311610e4457829003601f168201915b5050505050905086565b60015481565b80600660006101000a81548160ff02191690831515021790555060011515600660009054906101000a900460ff1615151415610ed957610eb16002610fd1565b60011515600660019054906101000a900460ff1615151415610ed857610ed76003610fd1565b5b5b50565b600360019054906101000a900460ff1681565b73631a3f43ffa216f97b346c3f2c896853290f70bc73ffffffffffffffffffffffffffffffffffffffff166108fc829081150290604051600060405180830381858888f19350505050158015610f49573d6000803e3d6000fd5b5050565b600360009054906101000a900460ff1681565b60055481565b80600660016101000a81548160ff02191690831515021790555060011515600660009054906101000a900460ff1615151415610fce57610fa66002610fd1565b60011515600660019054906101000a900460ff1615151415610fcd57610fcc6003610fd1565b5b5b50565b80600360016101000a81548160ff021916908360ff1602179055506002600360019054906101000a900460ff1660ff16141561104b576002600360006101000a81548160ff021916908360ff1602179055506002600360016101000a81548160ff021916908360ff16021790555061104a600454610eef565b5b60038060019054906101000a900460ff1660ff1614156110ab5760038060006101000a81548160ff021916908360ff16021790555060038060016101000a81548160ff021916908360ff1602179055506110a6600554610eef565b6110ac565b5b50565b828054600181600116156101000203166002900490600052602060002090601f016020900481019282601f106110f057805160ff191683800117855561111e565b8280016001018555821561111e579182015b8281111561111d578251825591602001919060010190611102565b5b50905061112b919061112f565b5090565b61115191905b8082111561114d576000816000905550600101611135565b5090565b9056fea265627a7a72315820999ce053dcff238d1a604f39cda001edaf903d06493425f93168da8e2771615064736f6c634300050c0032",
  "source": "pragma solidity >=0.4.21 <0.6.0;\n\ncontract Lassie {\n    string public name;\n    uint public sensorCount = 0;\n    mapping(uint => Sensor) public sensors;\n    \n    struct Sensor {\n        uint id;\n        string name;\n        address owner;\n        string lat;\n        string lon;\n        string endpoint;\n    }\n    \n    event SensorCreated(\n        uint id,\n        string name,\n        address owner,\n        string lat,\n        string lon,\n        string endpoint\n    );\n    \n    function createSensor(string memory _name, string memory _lat, string memory _lon, string memory _endpoint) public {\n        // validate we got something...\n        // TODO, actually validate...\n        require(bytes(_name).length > 0);\n        require(bytes(_lat).length > 0);\n        require(bytes(_lon).length > 0);\n        require(bytes(_endpoint).length > 0);\n\n        sensorCount ++;\n        // Create the sensor\n        sensors[sensorCount] = Sensor(sensorCount, _name, msg.sender , _lat, _lon, _endpoint);\n        // Trigger an event\n        emit SensorCreated(sensorCount, _name, msg.sender, _lat, _lon, _endpoint);\n    }\n    \n\n\n    // STATE VARIABLES\n    uint8 public contractState;  // 1 = OK    2 = WARNING   3 = CRITICAL\n    uint8 public responderState; // 1 = OK    2 = PREPPED    3 = RESPOND\n    // RESPONDER Payment Amounts\n    uint256 public responderPrepAmount = 1 wei;\n    uint256 public responderRespondAmount = 2 wei;\n\n    // SENSOR VARIABLES\n    bool smokeThresholdBreached;        // false = No Smoke    true = There's SMOKE\n    bool temperatureThresholdBreached;  // false = Temp OK     true = Too HOT\n\n    // ADDRESSES\n    address contractManager; //= 0x443B02B822a19BB96e64a9A673EdAA4027eD9b62;  // That's US, this is OUR account\n    address escrow    = address(this); // We PAY into this account (0x00786bBE030bB178693687c22ffCE593F51D904c)\n    address responder = 0x631A3f43ffA216f97B346C3F2C896853290F70bc;  // The Fire company\n\n    // Constructor code is only run when the contract\n    // is created\n    constructor(string memory _name, uint8 _contractState, uint8 _responderState ) public {\n        contractManager = msg.sender;\n        contractState  = _contractState;\n        responderState =  _responderState;\n        name = _name;\n        smokeThresholdBreached = false;\n        temperatureThresholdBreached = false;\n    }\n\n    // interface for IoT Sensors (AWS)\n    // @TODO Lock Down to Local Addy Later\n    // @TODO accept a sensorID, and set state on Sensor\n    function setSmoke( bool _newVal) public {\n        smokeThresholdBreached = _newVal;\n        if (smokeThresholdBreached == true){\n            setResponderState(2);\n            if (temperatureThresholdBreached == true) {\n                setResponderState(3);\n            }\n        }\n    }\n\n    function setTemperature (bool _newVal) public {\n        temperatureThresholdBreached = _newVal;\n        if (smokeThresholdBreached == true){\n            setResponderState(2);\n            if (temperatureThresholdBreached == true) {\n                setResponderState(3);\n            }\n        }\n    }\n\n    function transferEther(uint _amount) public payable {\n        address(0x631A3f43ffA216f97B346C3F2C896853290F70bc).transfer(_amount);\n    }\n\n    function setResponderState(uint8 _newState) private {\n        // @TODO add abi encoding\n        responderState = _newState;\n\n        if (responderState == 2) {\n            contractState = 2;\n            responderState = 2;\n            transferEther(responderPrepAmount);\n        }\n        if (responderState == 3) {\n            contractState = 3;\n            responderState = 3;\n            transferEther(responderRespondAmount);\n        } else {\n            // not sure how we'd even get here.\n        }\n    }  \n    \n    function () external payable {}\n}\n",
  "sourcePath": "/home/will/code/lassie/src/contracts/Lassie.sol",
  "compiler": {
    "name": "solc",
    "version": "0.5.12+commit.7709ece9.Emscripten.clang"
  },
  "schemaVersion": "3.0.20",
  "updatedAt": "2019-12-30T23:16:23.612Z",
  "networkType": "ethereum",
  "devdoc": {
    "methods": {}
  },
  "userdoc": {
    "methods": {}
  }
}