{
  "contractName": "Lassie",
  "abi": [
    {
      "inputs": [
        {
          "internalType": "string",
          "name": "_name",
          "type": "string"
        },
        {
          "internalType": "uint8",
          "name": "_contractState",
          "type": "uint8"
        },
        {
          "internalType": "uint8",
          "name": "_responderState",
          "type": "uint8"
        }
      ],
      "payable": true,
      "stateMutability": "payable",
      "type": "constructor"
    },
    {
      "anonymous": false,
      "inputs": [
        {
          "indexed": false,
          "internalType": "uint256",
          "name": "id",
          "type": "uint256"
        },
        {
          "indexed": false,
          "internalType": "string",
          "name": "name",
          "type": "string"
        },
        {
          "indexed": false,
          "internalType": "address",
          "name": "owner",
          "type": "address"
        },
        {
          "indexed": false,
          "internalType": "string",
          "name": "lat",
          "type": "string"
        },
        {
          "indexed": false,
          "internalType": "string",
          "name": "lon",
          "type": "string"
        },
        {
          "indexed": false,
          "internalType": "string",
          "name": "endpoint",
          "type": "string"
        }
      ],
      "name": "SensorCreated",
      "type": "event"
    },
    {
      "anonymous": false,
      "inputs": [
        {
          "indexed": false,
          "internalType": "uint256",
          "name": "stateNum",
          "type": "uint256"
        },
        {
          "indexed": false,
          "internalType": "string",
          "name": "sensorName",
          "type": "string"
        }
      ],
      "name": "currentResponderState",
      "type": "event"
    },
    {
      "anonymous": false,
      "inputs": [
        {
          "indexed": false,
          "internalType": "uint256",
          "name": "amount",
          "type": "uint256"
        }
      ],
      "name": "somebodyGotPaid",
      "type": "event"
    },
    {
      "payable": true,
      "stateMutability": "payable",
      "type": "fallback"
    },
    {
      "constant": true,
      "inputs": [],
      "name": "contractState",
      "outputs": [
        {
          "internalType": "uint8",
          "name": "",
          "type": "uint8"
        }
      ],
      "payable": false,
      "stateMutability": "view",
      "type": "function"
    },
    {
      "constant": true,
      "inputs": [],
      "name": "name",
      "outputs": [
        {
          "internalType": "string",
          "name": "",
          "type": "string"
        }
      ],
      "payable": false,
      "stateMutability": "view",
      "type": "function"
    },
    {
      "constant": true,
      "inputs": [],
      "name": "responderPrepAmount",
      "outputs": [
        {
          "internalType": "uint256",
          "name": "",
          "type": "uint256"
        }
      ],
      "payable": false,
      "stateMutability": "view",
      "type": "function"
    },
    {
      "constant": true,
      "inputs": [],
      "name": "responderRespondAmount",
      "outputs": [
        {
          "internalType": "uint256",
          "name": "",
          "type": "uint256"
        }
      ],
      "payable": false,
      "stateMutability": "view",
      "type": "function"
    },
    {
      "constant": true,
      "inputs": [],
      "name": "responderState",
      "outputs": [
        {
          "internalType": "uint8",
          "name": "",
          "type": "uint8"
        }
      ],
      "payable": false,
      "stateMutability": "view",
      "type": "function"
    },
    {
      "constant": true,
      "inputs": [],
      "name": "sensorCount",
      "outputs": [
        {
          "internalType": "uint256",
          "name": "",
          "type": "uint256"
        }
      ],
      "payable": false,
      "stateMutability": "view",
      "type": "function"
    },
    {
      "constant": true,
      "inputs": [
        {
          "internalType": "uint256",
          "name": "",
          "type": "uint256"
        }
      ],
      "name": "sensors",
      "outputs": [
        {
          "internalType": "uint256",
          "name": "id",
          "type": "uint256"
        },
        {
          "internalType": "string",
          "name": "name",
          "type": "string"
        },
        {
          "internalType": "address",
          "name": "owner",
          "type": "address"
        },
        {
          "internalType": "string",
          "name": "lat",
          "type": "string"
        },
        {
          "internalType": "string",
          "name": "lon",
          "type": "string"
        },
        {
          "internalType": "string",
          "name": "endpoint",
          "type": "string"
        }
      ],
      "payable": false,
      "stateMutability": "view",
      "type": "function"
    },
    {
      "constant": true,
      "inputs": [],
      "name": "smokeThresholdBreached",
      "outputs": [
        {
          "internalType": "bool",
          "name": "",
          "type": "bool"
        }
      ],
      "payable": false,
      "stateMutability": "view",
      "type": "function"
    },
    {
      "constant": true,
      "inputs": [],
      "name": "temperatureThresholdBreached",
      "outputs": [
        {
          "internalType": "bool",
          "name": "",
          "type": "bool"
        }
      ],
      "payable": false,
      "stateMutability": "view",
      "type": "function"
    },
    {
      "constant": false,
      "inputs": [
        {
          "internalType": "string",
          "name": "_name",
          "type": "string"
        },
        {
          "internalType": "string",
          "name": "_lat",
          "type": "string"
        },
        {
          "internalType": "string",
          "name": "_lon",
          "type": "string"
        },
        {
          "internalType": "string",
          "name": "_endpoint",
          "type": "string"
        }
      ],
      "name": "createSensor",
      "outputs": [],
      "payable": false,
      "stateMutability": "nonpayable",
      "type": "function"
    },
    {
      "constant": false,
      "inputs": [
        {
          "internalType": "bool",
          "name": "_newVal",
          "type": "bool"
        },
        {
          "internalType": "string",
          "name": "_sensorName",
          "type": "string"
        }
      ],
      "name": "setSmoke",
      "outputs": [],
      "payable": false,
      "stateMutability": "nonpayable",
      "type": "function"
    },
    {
      "constant": false,
      "inputs": [
        {
          "internalType": "bool",
          "name": "_newVal",
          "type": "bool"
        },
        {
          "internalType": "string",
          "name": "_sensorName",
          "type": "string"
        }
      ],
      "name": "setTemperature",
      "outputs": [],
      "payable": false,
      "stateMutability": "nonpayable",
      "type": "function"
    },
    {
      "constant": false,
      "inputs": [
        {
          "internalType": "uint256",
          "name": "_amount",
          "type": "uint256"
        }
      ],
      "name": "transferEther",
      "outputs": [],
      "payable": true,
      "stateMutability": "payable",
      "type": "function"
    }
  ],
  "bytecode": "0x608060405260006001556001600455600260055530600760006101000a81548173ffffffffffffffffffffffffffffffffffffffff021916908373ffffffffffffffffffffffffffffffffffffffff16021790555072786bbe030bb178693687c22ffce593f51d904c600860006101000a81548173ffffffffffffffffffffffffffffffffffffffff021916908373ffffffffffffffffffffffffffffffffffffffff160217905550604051620017c0380380620017c083398181016040526060811015620000cd57600080fd5b8101908080516040519392919084640100000000821115620000ee57600080fd5b838201915060208201858111156200010557600080fd5b82518660018202830111640100000000821117156200012357600080fd5b8083526020830192505050908051906020019080838360005b83811015620001595780820151818401526020810190506200013c565b50505050905090810190601f168015620001875780820380516001836020036101000a031916815260200191505b50604052602001805190602001909291908051906020019092919050505033600660026101000a81548173ffffffffffffffffffffffffffffffffffffffff021916908373ffffffffffffffffffffffffffffffffffffffff16021790555081600360006101000a81548160ff021916908360ff16021790555080600360016101000a81548160ff021916908360ff160217905550826000908051906020019062000234929190620002bc565b506000600660006101000a81548160ff0219169083151502179055506000600660016101000a81548160ff0219169083151502179055503073ffffffffffffffffffffffffffffffffffffffff166108fc349081150290604051600060405180830381858888f19350505050158015620002b2573d6000803e3d6000fd5b505050506200036b565b828054600181600116156101000203166002900490600052602060002090601f016020900481019282601f10620002ff57805160ff191683800117855562000330565b8280016001018555821562000330579182015b828111156200032f57825182559160200191906001019062000312565b5b5090506200033f919062000343565b5090565b6200036891905b80821115620003645760008160009055506001016200034a565b5090565b90565b611445806200037b6000396000f3fe6080604052600436106100c25760003560e01c80636f92bf351161007f57806385209ee01161005957806385209ee0146107cb5780638acf4ce1146107fc57806390598e2714610827578063aade1491146108fb576100c2565b80636f92bf351461069a57806373ffd5b7146106c957806384b0fe75146106f7576100c2565b806306fdde03146100c45780632503ffd7146101545780633a348e68146103e1578063412f2e821461040c578063642cd7871461063e5780636d0f9b4514610669575b005b3480156100d057600080fd5b506100d961092a565b6040518080602001828103825283818151815260200191508051906020019080838360005b838110156101195780820151818401526020810190506100fe565b50505050905090810190601f1680156101465780820380516001836020036101000a031916815260200191505b509250505060405180910390f35b34801561016057600080fd5b506103df6004803603608081101561017757600080fd5b810190808035906020019064010000000081111561019457600080fd5b8201836020820111156101a657600080fd5b803590602001918460018302840111640100000000831117156101c857600080fd5b91908080601f016020809104026020016040519081016040528093929190818152602001838380828437600081840152601f19601f8201169050808301925050505050505091929192908035906020019064010000000081111561022b57600080fd5b82018360208201111561023d57600080fd5b8035906020019184600183028401116401000000008311171561025f57600080fd5b91908080601f016020809104026020016040519081016040528093929190818152602001838380828437600081840152601f19601f820116905080830192505050505050509192919290803590602001906401000000008111156102c257600080fd5b8201836020820111156102d457600080fd5b803590602001918460018302840111640100000000831117156102f657600080fd5b91908080601f016020809104026020016040519081016040528093929190818152602001838380828437600081840152601f19601f8201169050808301925050505050505091929192908035906020019064010000000081111561035957600080fd5b82018360208201111561036b57600080fd5b8035906020019184600183028401116401000000008311171561038d57600080fd5b91908080601f016020809104026020016040519081016040528093929190818152602001838380828437600081840152601f19601f8201169050808301925050505050505091929192905050506109c8565b005b3480156103ed57600080fd5b506103f6610d5b565b6040518082815260200191505060405180910390f35b34801561041857600080fd5b506104456004803603602081101561042f57600080fd5b8101908080359060200190929190505050610d61565b60405180878152602001806020018673ffffffffffffffffffffffffffffffffffffffff1673ffffffffffffffffffffffffffffffffffffffff16815260200180602001806020018060200185810385528a818151815260200191508051906020019080838360005b838110156104c95780820151818401526020810190506104ae565b50505050905090810190601f1680156104f65780820380516001836020036101000a031916815260200191505b50858103845288818151815260200191508051906020019080838360005b8381101561052f578082015181840152602081019050610514565b50505050905090810190601f16801561055c5780820380516001836020036101000a031916815260200191505b50858103835287818151815260200191508051906020019080838360005b8381101561059557808201518184015260208101905061057a565b50505050905090810190601f1680156105c25780820380516001836020036101000a031916815260200191505b50858103825286818151815260200191508051906020019080838360005b838110156105fb5780820151818401526020810190506105e0565b50505050905090810190601f1680156106285780820380516001836020036101000a031916815260200191505b509a505050505050505050505060405180910390f35b34801561064a57600080fd5b5061065361101d565b6040518082815260200191505060405180910390f35b34801561067557600080fd5b5061067e611023565b604051808260ff1660ff16815260200191505060405180910390f35b3480156106a657600080fd5b506106af611036565b604051808215151515815260200191505060405180910390f35b6106f5600480360360208110156106df57600080fd5b8101908080359060200190929190505050611049565b005b34801561070357600080fd5b506107c96004803603604081101561071a57600080fd5b810190808035151590602001909291908035906020019064010000000081111561074357600080fd5b82018360208201111561075557600080fd5b8035906020019184600183028401116401000000008311171561077757600080fd5b91908080601f016020809104026020016040519081016040528093929190818152602001838380828437600081840152601f19601f8201169050808301925050505050505091929192905050506110dd565b005b3480156107d757600080fd5b506107e061114b565b604051808260ff1660ff16815260200191505060405180910390f35b34801561080857600080fd5b5061081161115e565b6040518082815260200191505060405180910390f35b34801561083357600080fd5b506108f96004803603604081101561084a57600080fd5b810190808035151590602001909291908035906020019064010000000081111561087357600080fd5b82018360208201111561088557600080fd5b803590602001918460018302840111640100000000831117156108a757600080fd5b91908080601f016020809104026020016040519081016040528093929190818152602001838380828437600081840152601f19601f820116905080830192505050505050509192919290505050611164565b005b34801561090757600080fd5b506109106111d2565b604051808215151515815260200191505060405180910390f35b60008054600181600116156101000203166002900480601f0160208091040260200160405190810160405280929190818152602001828054600181600116156101000203166002900480156109c05780601f10610995576101008083540402835291602001916109c0565b820191906000526020600020905b8154815290600101906020018083116109a357829003601f168201915b505050505081565b60008451116109d657600080fd5b60008351116109e457600080fd5b60008251116109f257600080fd5b6000815111610a0057600080fd5b6001600081548092919060010191905055506040518060c0016040528060015481526020018581526020013373ffffffffffffffffffffffffffffffffffffffff16815260200184815260200183815260200182815250600260006001548152602001908152602001600020600082015181600001556020820151816001019080519060200190610a9292919061136b565b5060408201518160020160006101000a81548173ffffffffffffffffffffffffffffffffffffffff021916908373ffffffffffffffffffffffffffffffffffffffff1602179055506060820151816003019080519060200190610af692919061136b565b506080820151816004019080519060200190610b1392919061136b565b5060a0820151816005019080519060200190610b3092919061136b565b509050507fd7a758a6b8adf656a8c2a7049436453ded6af08885a9d822891ca985de205477600154853386868660405180878152602001806020018673ffffffffffffffffffffffffffffffffffffffff1673ffffffffffffffffffffffffffffffffffffffff16815260200180602001806020018060200185810385528a818151815260200191508051906020019080838360005b83811015610be1578082015181840152602081019050610bc6565b50505050905090810190601f168015610c0e5780820380516001836020036101000a031916815260200191505b50858103845288818151815260200191508051906020019080838360005b83811015610c47578082015181840152602081019050610c2c565b50505050905090810190601f168015610c745780820380516001836020036101000a031916815260200191505b50858103835287818151815260200191508051906020019080838360005b83811015610cad578082015181840152602081019050610c92565b50505050905090810190601f168015610cda5780820380516001836020036101000a031916815260200191505b50858103825286818151815260200191508051906020019080838360005b83811015610d13578082015181840152602081019050610cf8565b50505050905090810190601f168015610d405780820380516001836020036101000a031916815260200191505b509a505050505050505050505060405180910390a150505050565b60045481565b6002602052806000526040600020600091509050806000015490806001018054600181600116156101000203166002900480601f016020809104026020016040519081016040528092919081815260200182805460018160011615610100020316600290048015610e135780601f10610de857610100808354040283529160200191610e13565b820191906000526020600020905b815481529060010190602001808311610df657829003601f168201915b5050505050908060020160009054906101000a900473ffffffffffffffffffffffffffffffffffffffff1690806003018054600181600116156101000203166002900480601f016020809104026020016040519081016040528092919081815260200182805460018160011615610100020316600290048015610ed75780601f10610eac57610100808354040283529160200191610ed7565b820191906000526020600020905b815481529060010190602001808311610eba57829003601f168201915b505050505090806004018054600181600116156101000203166002900480601f016020809104026020016040519081016040528092919081815260200182805460018160011615610100020316600290048015610f755780601f10610f4a57610100808354040283529160200191610f75565b820191906000526020600020905b815481529060010190602001808311610f5857829003601f168201915b505050505090806005018054600181600116156101000203166002900480601f0160208091040260200160405190810160405280929190818152602001828054600181600116156101000203166002900480156110135780601f10610fe857610100808354040283529160200191611013565b820191906000526020600020905b815481529060010190602001808311610ff657829003601f168201915b5050505050905086565b60015481565b600360019054906101000a900460ff1681565b600660009054906101000a900460ff1681565b72786bbe030bb178693687c22ffce593f51d904c73ffffffffffffffffffffffffffffffffffffffff166108fc829081150290604051600060405180830381858888f193505050501580156110a2573d6000803e3d6000fd5b507f3ae29e6b6935d84d7e62965e5dc70d46b300898adb189e8ecf91fba1736d9f97816040518082815260200191505060405180910390a150565b81600660016101000a81548160ff02191690831515021790555060011515600660009054906101000a900460ff16151514156111475761111e6002826111e5565b60011515600660019054906101000a900460ff1615151415611146576111456003826111e5565b5b5b5050565b600360009054906101000a900460ff1681565b60055481565b81600660006101000a81548160ff02191690831515021790555060011515600660019054906101000a900460ff16151514156111ce576111a56002826111e5565b60011515600660009054906101000a900460ff16151514156111cd576111cc6003826111e5565b5b5b5050565b600660019054906101000a900460ff1681565b81600360016101000a81548160ff021916908360ff1602179055507f06770f0c0c2f8c996debf55650a27fd08d1b31565d5e6033c7d646835553c3798282604051808360ff16815260200180602001828103825283818151815260200191508051906020019080838360005b8381101561126c578082015181840152602081019050611251565b50505050905090810190601f1680156112995780820380516001836020036101000a031916815260200191505b50935050505060405180910390a16002600360019054906101000a900460ff1660ff161415611306576002600360006101000a81548160ff021916908360ff1602179055506002600360016101000a81548160ff021916908360ff160217905550611305600454611049565b5b60038060019054906101000a900460ff1660ff1614156113665760038060006101000a81548160ff021916908360ff16021790555060038060016101000a81548160ff021916908360ff160217905550611361600554611049565b611367565b5b5050565b828054600181600116156101000203166002900490600052602060002090601f016020900481019282601f106113ac57805160ff19168380011785556113da565b828001600101855582156113da579182015b828111156113d95782518255916020019190600101906113be565b5b5090506113e791906113eb565b5090565b61140d91905b808211156114095760008160009055506001016113f1565b5090565b9056fea265627a7a72315820165616dc657a3fe1756d65b4a2284492980b27bb4df1ace67ceee026a7d337c364736f6c634300050c0032",
  "source": "pragma solidity >=0.4.21 <0.6.0;\n\ncontract Lassie {\n    string public name;\n    uint public sensorCount = 0;\n    mapping(uint => Sensor) public sensors;\n    \n    struct Sensor {\n        uint id;\n        string name;\n        address owner;\n        string lat;\n        string lon;\n        string endpoint;\n    }\n    \n    event SensorCreated(\n        uint id,\n        string name,\n        address owner,\n        string lat,\n        string lon,\n        string endpoint\n    );\n    \n    event currentResponderState(\n        uint stateNum,\n        string sensorName\n    );\n\n    event somebodyGotPaid(\n        uint amount\n    );\n\n    function createSensor(string memory _name, string memory _lat, string memory _lon, string memory _endpoint) public {\n        // validate we got something...\n        // TODO, actually validate...\n        require(bytes(_name).length > 0);\n        require(bytes(_lat).length > 0);\n        require(bytes(_lon).length > 0);\n        require(bytes(_endpoint).length > 0);\n\n        sensorCount ++;\n        // Create the sensor\n        sensors[sensorCount] = Sensor(sensorCount, _name, msg.sender , _lat, _lon, _endpoint);\n        // Trigger an event\n        emit SensorCreated(sensorCount, _name, msg.sender, _lat, _lon, _endpoint);\n    }\n    \n\n\n    // STATE VARIABLES\n    uint8 public contractState;  // 1 = OK    2 = WARNING   3 = CRITICAL\n    uint8 public responderState; // 1 = OK    2 = PREPPED    3 = RESPOND\n    // RESPONDER Payment Amounts\n    uint256 public responderPrepAmount = 1 wei;\n    uint256 public responderRespondAmount = 2 wei;\n\n    // SENSOR VARIABLES\n    bool public smokeThresholdBreached;        // false = No Smoke    true = There's SMOKE\n    bool public temperatureThresholdBreached;  // false = Temp OK     true = Too HOT\n\n    // ADDRESSES\n    address contractManager; //= 0x443B02B822a19BB96e64a9A673EdAA4027eD9b62;  // That's US, this is OUR account\n    address escrow    = address(this); // We PAY into this account (0x00786bBE030bB178693687c22ffCE593F51D904c)\n    address responder = 0x00786bBE030bB178693687c22ffCE593F51D904c;  // The Fire company\n\n    // Constructor code is only run when the contract\n    // is created\n    constructor(string memory _name, uint8 _contractState, uint8 _responderState ) public payable {\n        contractManager = msg.sender;\n        contractState  = _contractState;\n        responderState =  _responderState;\n        name = _name;\n        smokeThresholdBreached = false;\n        temperatureThresholdBreached = false;\n        address(this).transfer(msg.value);\n    }\n\n    // interface for IoT Sensors (AWS)\n    // @TODO Lock Down to Local Addy Later\n    // @TODO accept a sensorID, and set state on Sensor\n function setSmoke( bool _newVal, string memory _sensorName) public {\n        smokeThresholdBreached = _newVal;\n        if (temperatureThresholdBreached == true){\n            setResponderState(2,_sensorName);\n            if (smokeThresholdBreached == true) {\n                setResponderState(3,_sensorName);\n            }\n        } \n    }\n\n    function setTemperature (bool _newVal, string memory _sensorName) public {\n        temperatureThresholdBreached = _newVal;\n        if (smokeThresholdBreached == true){\n            setResponderState(2,_sensorName);\n            if (temperatureThresholdBreached == true) {\n                setResponderState(3,_sensorName);\n            }\n        }\n    }\n    \n    function transferEther(uint _amount) public payable {\n        address(0x00786bBE030bB178693687c22ffCE593F51D904c).transfer(_amount);\n        emit somebodyGotPaid(_amount);\n    }\n\n    function setResponderState(uint8 _newState, string memory _sensorName) private {\n        // @TODO add abi encoding\n        responderState = _newState;\n\n        emit currentResponderState(_newState, _sensorName);\n\n        if (responderState == 2) {\n            contractState = 2;\n            responderState = 2;\n            transferEther(responderPrepAmount);\n        }\n        if (responderState == 3) {\n            contractState = 3;\n            responderState = 3;\n            transferEther(responderRespondAmount);\n        } else {\n            // not sure how we'd even get here.\n        }\n    }  \n    \n    function () external payable {}\n}\n",
  "sourcePath": "/home/will/code/lassie/src/contracts/Lassie.sol",
  "compiler": {
    "name": "solc",
    "version": "0.5.12+commit.7709ece9.Emscripten.clang"
  },
  "schemaVersion": "3.0.20",
  "updatedAt": "2020-01-16T01:28:37.862Z",
  "networkType": "ethereum",
  "devdoc": {
    "methods": {}
  },
  "userdoc": {
    "methods": {}
  }
}